{
  "contractName": "Land",
  "abi": [
    {
      "inputs": [
        {
          "internalType": "string",
          "name": "_name",
          "type": "string"
        },
        {
          "internalType": "string",
          "name": "_symbol",
          "type": "string"
        }
      ],
      "stateMutability": "nonpayable",
      "type": "constructor"
    },
    {
      "anonymous": false,
      "inputs": [
        {
          "indexed": true,
          "internalType": "address",
          "name": "owner",
          "type": "address"
        },
        {
          "indexed": true,
          "internalType": "address",
          "name": "approved",
          "type": "address"
        },
        {
          "indexed": true,
          "internalType": "uint256",
          "name": "tokenId",
          "type": "uint256"
        }
      ],
      "name": "Approval",
      "type": "event"
    },
    {
      "anonymous": false,
      "inputs": [
        {
          "indexed": true,
          "internalType": "address",
          "name": "owner",
          "type": "address"
        },
        {
          "indexed": true,
          "internalType": "address",
          "name": "operator",
          "type": "address"
        },
        {
          "indexed": false,
          "internalType": "bool",
          "name": "approved",
          "type": "bool"
        }
      ],
      "name": "ApprovalForAll",
      "type": "event"
    },
    {
      "anonymous": false,
      "inputs": [
        {
          "indexed": false,
          "internalType": "uint256",
          "name": "index",
          "type": "uint256"
        },
        {
          "indexed": false,
          "internalType": "uint256",
          "name": "price",
          "type": "uint256"
        },
        {
          "indexed": false,
          "internalType": "bool",
          "name": "forSale",
          "type": "bool"
        }
      ],
      "name": "PlotAvailabilityChanged",
      "type": "event"
    },
    {
      "anonymous": false,
      "inputs": [
        {
          "indexed": false,
          "internalType": "uint256",
          "name": "index",
          "type": "uint256"
        }
      ],
      "name": "PlotOwnerChanged",
      "type": "event"
    },
    {
      "anonymous": false,
      "inputs": [
        {
          "indexed": false,
          "internalType": "uint256",
          "name": "index",
          "type": "uint256"
        },
        {
          "indexed": false,
          "internalType": "uint256",
          "name": "price",
          "type": "uint256"
        }
      ],
      "name": "PlotPriceChanged",
      "type": "event"
    },
    {
      "anonymous": false,
      "inputs": [
        {
          "indexed": true,
          "internalType": "address",
          "name": "from",
          "type": "address"
        },
        {
          "indexed": true,
          "internalType": "address",
          "name": "to",
          "type": "address"
        },
        {
          "indexed": true,
          "internalType": "uint256",
          "name": "tokenId",
          "type": "uint256"
        }
      ],
      "name": "Transfer",
      "type": "event"
    },
    {
      "inputs": [
        {
          "internalType": "address",
          "name": "to",
          "type": "address"
        },
        {
          "internalType": "uint256",
          "name": "tokenId",
          "type": "uint256"
        }
      ],
      "name": "approve",
      "outputs": [],
      "stateMutability": "nonpayable",
      "type": "function"
    },
    {
      "inputs": [
        {
          "internalType": "address",
          "name": "owner",
          "type": "address"
        }
      ],
      "name": "balanceOf",
      "outputs": [
        {
          "internalType": "uint256",
          "name": "",
          "type": "uint256"
        }
      ],
      "stateMutability": "view",
      "type": "function",
      "constant": true
    },
    {
      "inputs": [],
      "name": "cost",
      "outputs": [
        {
          "internalType": "uint256",
          "name": "",
          "type": "uint256"
        }
      ],
      "stateMutability": "view",
      "type": "function",
      "constant": true
    },
    {
      "inputs": [
        {
          "internalType": "uint256",
          "name": "tokenId",
          "type": "uint256"
        }
      ],
      "name": "getApproved",
      "outputs": [
        {
          "internalType": "address",
          "name": "",
          "type": "address"
        }
      ],
      "stateMutability": "view",
      "type": "function",
      "constant": true
    },
    {
      "inputs": [
        {
          "internalType": "address",
          "name": "owner",
          "type": "address"
        },
        {
          "internalType": "address",
          "name": "operator",
          "type": "address"
        }
      ],
      "name": "isApprovedForAll",
      "outputs": [
        {
          "internalType": "bool",
          "name": "",
          "type": "bool"
        }
      ],
      "stateMutability": "view",
      "type": "function",
      "constant": true
    },
    {
      "inputs": [],
      "name": "maxSupply",
      "outputs": [
        {
          "internalType": "uint256",
          "name": "",
          "type": "uint256"
        }
      ],
      "stateMutability": "view",
      "type": "function",
      "constant": true
    },
    {
      "inputs": [],
      "name": "name",
      "outputs": [
        {
          "internalType": "string",
          "name": "",
          "type": "string"
        }
      ],
      "stateMutability": "view",
      "type": "function",
      "constant": true
    },
    {
      "inputs": [
        {
          "internalType": "uint256",
          "name": "tokenId",
          "type": "uint256"
        }
      ],
      "name": "ownerOf",
      "outputs": [
        {
          "internalType": "address",
          "name": "",
          "type": "address"
        }
      ],
      "stateMutability": "view",
      "type": "function",
      "constant": true
    },
    {
      "inputs": [
        {
          "internalType": "uint256",
          "name": "",
          "type": "uint256"
        }
      ],
      "name": "plots",
      "outputs": [
        {
          "internalType": "address",
          "name": "owner",
          "type": "address"
        },
        {
          "internalType": "bool",
          "name": "forSale",
          "type": "bool"
        },
        {
          "internalType": "uint256",
          "name": "price",
          "type": "uint256"
        },
        {
          "internalType": "uint256",
          "name": "id",
          "type": "uint256"
        }
      ],
      "stateMutability": "view",
      "type": "function",
      "constant": true
    },
    {
      "inputs": [
        {
          "internalType": "address",
          "name": "operator",
          "type": "address"
        },
        {
          "internalType": "bool",
          "name": "approved",
          "type": "bool"
        }
      ],
      "name": "setApprovalForAll",
      "outputs": [],
      "stateMutability": "nonpayable",
      "type": "function"
    },
    {
      "inputs": [
        {
          "internalType": "bytes4",
          "name": "interfaceId",
          "type": "bytes4"
        }
      ],
      "name": "supportsInterface",
      "outputs": [
        {
          "internalType": "bool",
          "name": "",
          "type": "bool"
        }
      ],
      "stateMutability": "view",
      "type": "function",
      "constant": true
    },
    {
      "inputs": [],
      "name": "symbol",
      "outputs": [
        {
          "internalType": "string",
          "name": "",
          "type": "string"
        }
      ],
      "stateMutability": "view",
      "type": "function",
      "constant": true
    },
    {
      "inputs": [
        {
          "internalType": "uint256",
          "name": "tokenId",
          "type": "uint256"
        }
      ],
      "name": "tokenURI",
      "outputs": [
        {
          "internalType": "string",
          "name": "",
          "type": "string"
        }
      ],
      "stateMutability": "view",
      "type": "function",
      "constant": true
    },
    {
      "inputs": [],
      "name": "totalSupply",
      "outputs": [
        {
          "internalType": "uint256",
          "name": "",
          "type": "uint256"
        }
      ],
      "stateMutability": "view",
      "type": "function",
      "constant": true
    },
    {
      "inputs": [
        {
          "internalType": "uint256",
          "name": "_id",
          "type": "uint256"
        }
      ],
      "name": "mint",
      "outputs": [],
      "stateMutability": "payable",
      "type": "function",
      "payable": true
    },
    {
      "inputs": [
        {
          "internalType": "address",
          "name": "from",
          "type": "address"
        },
        {
          "internalType": "address",
          "name": "to",
          "type": "address"
        },
        {
          "internalType": "uint256",
          "name": "tokenId",
          "type": "uint256"
        }
      ],
      "name": "transferFrom",
      "outputs": [],
      "stateMutability": "nonpayable",
      "type": "function"
    },
    {
      "inputs": [
        {
          "internalType": "address",
          "name": "from",
          "type": "address"
        },
        {
          "internalType": "address",
          "name": "to",
          "type": "address"
        },
        {
          "internalType": "uint256",
          "name": "tokenId",
          "type": "uint256"
        }
      ],
      "name": "safeTransferFrom",
      "outputs": [],
      "stateMutability": "nonpayable",
      "type": "function"
    },
    {
      "inputs": [
        {
          "internalType": "address",
          "name": "from",
          "type": "address"
        },
        {
          "internalType": "address",
          "name": "to",
          "type": "address"
        },
        {
          "internalType": "uint256",
          "name": "tokenId",
          "type": "uint256"
        },
        {
          "internalType": "bytes",
          "name": "_data",
          "type": "bytes"
        }
      ],
      "name": "safeTransferFrom",
      "outputs": [],
      "stateMutability": "nonpayable",
      "type": "function"
    },
    {
      "inputs": [],
      "name": "getPlots",
      "outputs": [
        {
          "components": [
            {
              "internalType": "address",
              "name": "owner",
              "type": "address"
            },
            {
              "internalType": "bool",
              "name": "forSale",
              "type": "bool"
            },
            {
              "internalType": "uint256",
              "name": "price",
              "type": "uint256"
            },
            {
              "internalType": "uint256",
              "name": "id",
              "type": "uint256"
            }
          ],
          "internalType": "struct Land.Plot[]",
          "name": "",
          "type": "tuple[]"
        }
      ],
      "stateMutability": "view",
      "type": "function",
      "constant": true
    },
    {
      "inputs": [
        {
          "internalType": "uint256",
          "name": "_id",
          "type": "uint256"
        }
      ],
      "name": "getPlot",
      "outputs": [
        {
          "components": [
            {
              "internalType": "address",
              "name": "owner",
              "type": "address"
            },
            {
              "internalType": "bool",
              "name": "forSale",
              "type": "bool"
            },
            {
              "internalType": "uint256",
              "name": "price",
              "type": "uint256"
            },
            {
              "internalType": "uint256",
              "name": "id",
              "type": "uint256"
            }
          ],
          "internalType": "struct Land.Plot",
          "name": "",
          "type": "tuple"
        }
      ],
      "stateMutability": "view",
      "type": "function",
      "constant": true
    },
    {
      "inputs": [
        {
          "internalType": "uint256",
          "name": "_id",
          "type": "uint256"
        },
        {
          "internalType": "uint256",
          "name": "price",
          "type": "uint256"
        }
      ],
      "name": "putPlotUpForSale",
      "outputs": [],
      "stateMutability": "nonpayable",
      "type": "function"
    },
    {
      "inputs": [
        {
          "internalType": "uint256",
          "name": "_id",
          "type": "uint256"
        }
      ],
      "name": "takeOffMarket",
      "outputs": [],
      "stateMutability": "nonpayable",
      "type": "function"
    },
    {
      "inputs": [
        {
          "internalType": "uint256",
          "name": "_id",
          "type": "uint256"
        }
      ],
      "name": "buyPlot",
      "outputs": [],
      "stateMutability": "payable",
      "type": "function",
      "payable": true
    }
  ],
  "bytecode": "0x6080604052671bc16d674ec80000600655606460075560006008553480156200002757600080fd5b5060405162003c3e38038062003c3e83398181016040528101906200004d9190620003e7565b81818160009080519060200190620000679291906200019a565b508060019080519060200190620000809291906200019a565b50505060005b6064811015620001915760096040518060800160405280600073ffffffffffffffffffffffffffffffffffffffff168152602001600115158152602001671bc16d674ec80000815260200183815250908060018154018082558091505060019003906000526020600020906003020160009091909190915060008201518160000160006101000a81548173ffffffffffffffffffffffffffffffffffffffff021916908373ffffffffffffffffffffffffffffffffffffffff16021790555060208201518160000160146101000a81548160ff0219169083151502179055506040820151816001015560608201518160020155505080806200018890620004a5565b91505062000086565b50505062000558565b828054620001a89062000522565b90600052602060002090601f016020900481019282620001cc576000855562000218565b82601f10620001e757805160ff191683800117855562000218565b8280016001018555821562000218579182015b8281111562000217578251825591602001919060010190620001fa565b5b5090506200022791906200022b565b5090565b5b80821115620002465760008160009055506001016200022c565b5090565b6000604051905090565b600080fd5b600080fd5b600080fd5b600080fd5b6000601f19601f8301169050919050565b7f4e487b7100000000000000000000000000000000000000000000000000000000600052604160045260246000fd5b620002b38262000268565b810181811067ffffffffffffffff82111715620002d557620002d462000279565b5b80604052505050565b6000620002ea6200024a565b9050620002f88282620002a8565b919050565b600067ffffffffffffffff8211156200031b576200031a62000279565b5b620003268262000268565b9050602081019050919050565b60005b838110156200035357808201518184015260208101905062000336565b8381111562000363576000848401525b50505050565b6000620003806200037a84620002fd565b620002de565b9050828152602081018484840111156200039f576200039e62000263565b5b620003ac84828562000333565b509392505050565b600082601f830112620003cc57620003cb6200025e565b5b8151620003de84826020860162000369565b91505092915050565b6000806040838503121562000401576200040062000254565b5b600083015167ffffffffffffffff81111562000422576200042162000259565b5b6200043085828601620003b4565b925050602083015167ffffffffffffffff81111562000454576200045362000259565b5b6200046285828601620003b4565b9150509250929050565b7f4e487b7100000000000000000000000000000000000000000000000000000000600052601160045260246000fd5b6000819050919050565b6000620004b2826200049b565b91507fffffffffffffffffffffffffffffffffffffffffffffffffffffffffffffffff821415620004e857620004e76200046c565b5b600182019050919050565b7f4e487b7100000000000000000000000000000000000000000000000000000000600052602260045260246000fd5b600060028204905060018216806200053b57607f821691505b60208210811415620005525762000551620004f3565b5b50919050565b6136d680620005686000396000f3fe6080604052600436106101405760003560e01c80637b1949d2116100b6578063cfdd4fbd1161006f578063cfdd4fbd14610467578063d1311446146104a4578063d5abeb01146104cd578063d81595f1146104f8578063e985e9c514610521578063f9cf80a91461055e57610140565b80637b1949d21461037557806395d89b4114610391578063a0712d68146103bc578063a22cb465146103d8578063b88d4fde14610401578063c87b56dd1461042a57610140565b806318160ddd1161010857806318160ddd1461023e57806323b872dd1461026957806342842e0e1461029257806361bf49ee146102bb5780636352211e146102fb57806370a082311461033857610140565b806301ffc9a71461014557806306fdde0314610182578063081812fc146101ad578063095ea7b3146101ea57806313faede614610213575b600080fd5b34801561015157600080fd5b5061016c600480360381019061016791906123da565b610589565b6040516101799190612422565b60405180910390f35b34801561018e57600080fd5b5061019761066b565b6040516101a491906124d6565b60405180910390f35b3480156101b957600080fd5b506101d460048036038101906101cf919061252e565b6106fd565b6040516101e1919061259c565b60405180910390f35b3480156101f657600080fd5b50610211600480360381019061020c91906125e3565b610782565b005b34801561021f57600080fd5b5061022861089a565b6040516102359190612632565b60405180910390f35b34801561024a57600080fd5b506102536108a0565b6040516102609190612632565b60405180910390f35b34801561027557600080fd5b50610290600480360381019061028b919061264d565b6108a6565b005b34801561029e57600080fd5b506102b960048036038101906102b4919061264d565b610976565b005b3480156102c757600080fd5b506102e260048036038101906102dd919061252e565b610996565b6040516102f294939291906126a0565b60405180910390f35b34801561030757600080fd5b50610322600480360381019061031d919061252e565b610a03565b60405161032f919061259c565b60405180910390f35b34801561034457600080fd5b5061035f600480360381019061035a91906126e5565b610ab5565b60405161036c9190612632565b60405180910390f35b61038f600480360381019061038a919061252e565b610b6d565b005b34801561039d57600080fd5b506103a6610e3b565b6040516103b391906124d6565b60405180910390f35b6103d660048036038101906103d1919061252e565b610ecd565b005b3480156103e457600080fd5b506103ff60048036038101906103fa919061273e565b611088565b005b34801561040d57600080fd5b50610428600480360381019061042391906128b3565b61109e565b005b34801561043657600080fd5b50610451600480360381019061044c919061252e565b611170565b60405161045e91906124d6565b60405180910390f35b34801561047357600080fd5b5061048e6004803603810190610489919061252e565b611217565b60405161049b91906129b8565b60405180910390f35b3480156104b057600080fd5b506104cb60048036038101906104c6919061252e565b6112e4565b005b3480156104d957600080fd5b506104e2611427565b6040516104ef9190612632565b60405180910390f35b34801561050457600080fd5b5061051f600480360381019061051a91906129d3565b61142d565b005b34801561052d57600080fd5b5061054860048036038101906105439190612a13565b611582565b6040516105559190612422565b60405180910390f35b34801561056a57600080fd5b50610573611616565b6040516105809190612b57565b60405180910390f35b60007f80ac58cd000000000000000000000000000000000000000000000000000000007bffffffffffffffffffffffffffffffffffffffffffffffffffffffff1916827bffffffffffffffffffffffffffffffffffffffffffffffffffffffff1916148061065457507f5b5e139f000000000000000000000000000000000000000000000000000000007bffffffffffffffffffffffffffffffffffffffffffffffffffffffff1916827bffffffffffffffffffffffffffffffffffffffffffffffffffffffff1916145b806106645750610663826116fa565b5b9050919050565b60606000805461067a90612ba8565b80601f01602080910402602001604051908101604052809291908181526020018280546106a690612ba8565b80156106f35780601f106106c8576101008083540402835291602001916106f3565b820191906000526020600020905b8154815290600101906020018083116106d657829003601f168201915b5050505050905090565b600061070882611764565b610747576040517f08c379a000000000000000000000000000000000000000000000000000000000815260040161073e90612c4c565b60405180910390fd5b6004600083815260200190815260200160002060009054906101000a900473ffffffffffffffffffffffffffffffffffffffff169050919050565b600061078d82610a03565b90508073ffffffffffffffffffffffffffffffffffffffff168373ffffffffffffffffffffffffffffffffffffffff1614156107fe576040517f08c379a00000000000000000000000000000000000000000000000000000000081526004016107f590612cde565b60405180910390fd5b8073ffffffffffffffffffffffffffffffffffffffff1661081d6117d0565b73ffffffffffffffffffffffffffffffffffffffff16148061084c575061084b816108466117d0565b611582565b5b61088b576040517f08c379a000000000000000000000000000000000000000000000000000000000815260040161088290612d70565b60405180910390fd5b61089583836117d8565b505050565b60065481565b60085481565b6108b76108b16117d0565b82611891565b6108f6576040517f08c379a00000000000000000000000000000000000000000000000000000000081526004016108ed90612e02565b60405180910390fd5b8160096001836109069190612e51565b8154811061091757610916612e85565b5b906000526020600020906003020160000160006101000a81548173ffffffffffffffffffffffffffffffffffffffff021916908373ffffffffffffffffffffffffffffffffffffffff16021790555061097183838361196f565b505050565b6109918383836040518060200160405280600081525061109e565b505050565b600981815481106109a657600080fd5b90600052602060002090600302016000915090508060000160009054906101000a900473ffffffffffffffffffffffffffffffffffffffff16908060000160149054906101000a900460ff16908060010154908060020154905084565b6000806002600084815260200190815260200160002060009054906101000a900473ffffffffffffffffffffffffffffffffffffffff169050600073ffffffffffffffffffffffffffffffffffffffff168173ffffffffffffffffffffffffffffffffffffffff161415610aac576040517f08c379a0000000000000000000000000000000000000000000000000000000008152600401610aa390612f26565b60405180910390fd5b80915050919050565b60008073ffffffffffffffffffffffffffffffffffffffff168273ffffffffffffffffffffffffffffffffffffffff161415610b26576040517f08c379a0000000000000000000000000000000000000000000000000000000008152600401610b1d90612fb8565b60405180910390fd5b600360008373ffffffffffffffffffffffffffffffffffffffff1673ffffffffffffffffffffffffffffffffffffffff168152602001908152602001600020549050919050565b60006009600183610b7e9190612e51565b81548110610b8f57610b8e612e85565b5b906000526020600020906003020160000160009054906101000a900473ffffffffffffffffffffffffffffffffffffffff16905060006009600184610bd49190612e51565b81548110610be557610be4612e85565b5b906000526020600020906003020160020154118015610c3757506007546009600184610c119190612e51565b81548110610c2257610c21612e85565b5b90600052602060002090600302016002015411155b610c4057600080fd5b6009600183610c4f9190612e51565b81548110610c6057610c5f612e85565b5b906000526020600020906003020160010154341015610c7e57600080fd5b6009600183610c8d9190612e51565b81548110610c9e57610c9d612e85565b5b906000526020600020906003020160000160149054906101000a900460ff16610cc657600080fd5b3373ffffffffffffffffffffffffffffffffffffffff168173ffffffffffffffffffffffffffffffffffffffff161415610cff57600080fd5b336009600184610d0f9190612e51565b81548110610d2057610d1f612e85565b5b906000526020600020906003020160000160006101000a81548173ffffffffffffffffffffffffffffffffffffffff021916908373ffffffffffffffffffffffffffffffffffffffff16021790555060006009600184610d809190612e51565b81548110610d9157610d90612e85565b5b906000526020600020906003020160000160146101000a81548160ff0219169083151502179055508073ffffffffffffffffffffffffffffffffffffffff166108fc349081150290604051600060405180830381858888f19350505050158015610dff573d6000803e3d6000fd5b507fdfae03cf228ff8c45c20fc02b731bb43373364bd428f52e24885f609814ce49782604051610e2f9190612632565b60405180910390a15050565b606060018054610e4a90612ba8565b80601f0160208091040260200160405190810160405280929190818152602001828054610e7690612ba8565b8015610ec35780601f10610e9857610100808354040283529160200191610ec3565b820191906000526020600020905b815481529060010190602001808311610ea657829003601f168201915b5050505050905090565b60006008549050600754811115610ee357600080fd5b600073ffffffffffffffffffffffffffffffffffffffff166009600184610f0a9190612e51565b81548110610f1b57610f1a612e85565b5b906000526020600020906003020160000160009054906101000a900473ffffffffffffffffffffffffffffffffffffffff1673ffffffffffffffffffffffffffffffffffffffff1614610f6d57600080fd5b6009600183610f7c9190612e51565b81548110610f8d57610f8c612e85565b5b906000526020600020906003020160010154341015610fab57600080fd5b336009600184610fbb9190612e51565b81548110610fcc57610fcb612e85565b5b906000526020600020906003020160000160006101000a81548173ffffffffffffffffffffffffffffffffffffffff021916908373ffffffffffffffffffffffffffffffffffffffff1602179055506000600960018461102c9190612e51565b8154811061103d5761103c612e85565b5b906000526020600020906003020160000160146101000a81548160ff02191690831515021790555060016008546110749190612fd8565b6008819055506110843383611bd6565b5050565b61109a6110936117d0565b8383611bf4565b5050565b6110af6110a96117d0565b83611891565b6110ee576040517f08c379a00000000000000000000000000000000000000000000000000000000081526004016110e590612e02565b60405180910390fd5b8260096001846110fe9190612e51565b8154811061110f5761110e612e85565b5b906000526020600020906003020160000160006101000a81548173ffffffffffffffffffffffffffffffffffffffff021916908373ffffffffffffffffffffffffffffffffffffffff16021790555061116a84848484611d61565b50505050565b606061117b82611764565b6111ba576040517f08c379a00000000000000000000000000000000000000000000000000000000081526004016111b1906130a0565b60405180910390fd5b60006111c4611dbd565b905060008151116111e4576040518060200160405280600081525061120f565b806111ee84611dd4565b6040516020016111ff9291906130fc565b6040516020818303038152906040525b915050919050565b61121f61232e565b600960018361122e9190612e51565b8154811061123f5761123e612e85565b5b90600052602060002090600302016040518060800160405290816000820160009054906101000a900473ffffffffffffffffffffffffffffffffffffffff1673ffffffffffffffffffffffffffffffffffffffff1673ffffffffffffffffffffffffffffffffffffffff1681526020016000820160149054906101000a900460ff16151515158152602001600182015481526020016002820154815250509050919050565b60096001826112f39190612e51565b8154811061130457611303612e85565b5b906000526020600020906003020160000160009054906101000a900473ffffffffffffffffffffffffffffffffffffffff1673ffffffffffffffffffffffffffffffffffffffff163373ffffffffffffffffffffffffffffffffffffffff161461136d57600080fd5b6000600960018361137e9190612e51565b8154811061138f5761138e612e85565b5b906000526020600020906003020160000160146101000a81548160ff0219169083151502179055507ff8d85ddec75c998a4715c6f8d537607faa56efa42937f3ed1e18eb6ab0ab4af38160096001846113e89190612e51565b815481106113f9576113f8612e85565b5b906000526020600020906003020160010154600060405161141c93929190613120565b60405180910390a150565b60075481565b600960018361143c9190612e51565b8154811061144d5761144c612e85565b5b906000526020600020906003020160000160009054906101000a900473ffffffffffffffffffffffffffffffffffffffff1673ffffffffffffffffffffffffffffffffffffffff163373ffffffffffffffffffffffffffffffffffffffff161480156114b95750600081115b6114c257600080fd5b600160096001846114d39190612e51565b815481106114e4576114e3612e85565b5b906000526020600020906003020160000160146101000a81548160ff02191690831515021790555080600960018461151c9190612e51565b8154811061152d5761152c612e85565b5b9060005260206000209060030201600101819055507ff8d85ddec75c998a4715c6f8d537607faa56efa42937f3ed1e18eb6ab0ab4af38282600160405161157693929190613120565b60405180910390a15050565b6000600560008473ffffffffffffffffffffffffffffffffffffffff1673ffffffffffffffffffffffffffffffffffffffff16815260200190815260200160002060008373ffffffffffffffffffffffffffffffffffffffff1673ffffffffffffffffffffffffffffffffffffffff16815260200190815260200160002060009054906101000a900460ff16905092915050565b60606009805480602002602001604051908101604052809291908181526020016000905b828210156116f157838290600052602060002090600302016040518060800160405290816000820160009054906101000a900473ffffffffffffffffffffffffffffffffffffffff1673ffffffffffffffffffffffffffffffffffffffff1673ffffffffffffffffffffffffffffffffffffffff1681526020016000820160149054906101000a900460ff16151515158152602001600182015481526020016002820154815250508152602001906001019061163a565b50505050905090565b60007f01ffc9a7000000000000000000000000000000000000000000000000000000007bffffffffffffffffffffffffffffffffffffffffffffffffffffffff1916827bffffffffffffffffffffffffffffffffffffffffffffffffffffffff1916149050919050565b60008073ffffffffffffffffffffffffffffffffffffffff166002600084815260200190815260200160002060009054906101000a900473ffffffffffffffffffffffffffffffffffffffff1673ffffffffffffffffffffffffffffffffffffffff1614159050919050565b600033905090565b816004600083815260200190815260200160002060006101000a81548173ffffffffffffffffffffffffffffffffffffffff021916908373ffffffffffffffffffffffffffffffffffffffff160217905550808273ffffffffffffffffffffffffffffffffffffffff1661184b83610a03565b73ffffffffffffffffffffffffffffffffffffffff167f8c5be1e5ebec7d5bd14f71427d1e84f3dd0314c0f7b2291e5b200ac8c7c3b92560405160405180910390a45050565b600061189c82611764565b6118db576040517f08c379a00000000000000000000000000000000000000000000000000000000081526004016118d2906131c9565b60405180910390fd5b60006118e683610a03565b90508073ffffffffffffffffffffffffffffffffffffffff168473ffffffffffffffffffffffffffffffffffffffff16148061195557508373ffffffffffffffffffffffffffffffffffffffff1661193d846106fd565b73ffffffffffffffffffffffffffffffffffffffff16145b8061196657506119658185611582565b5b91505092915050565b8273ffffffffffffffffffffffffffffffffffffffff1661198f82610a03565b73ffffffffffffffffffffffffffffffffffffffff16146119e5576040517f08c379a00000000000000000000000000000000000000000000000000000000081526004016119dc9061325b565b60405180910390fd5b600073ffffffffffffffffffffffffffffffffffffffff168273ffffffffffffffffffffffffffffffffffffffff161415611a55576040517f08c379a0000000000000000000000000000000000000000000000000000000008152600401611a4c906132ed565b60405180910390fd5b611a60838383611f35565b611a6b6000826117d8565b6001600360008573ffffffffffffffffffffffffffffffffffffffff1673ffffffffffffffffffffffffffffffffffffffff1681526020019081526020016000206000828254611abb9190612e51565b925050819055506001600360008473ffffffffffffffffffffffffffffffffffffffff1673ffffffffffffffffffffffffffffffffffffffff1681526020019081526020016000206000828254611b129190612fd8565b92505081905550816002600083815260200190815260200160002060006101000a81548173ffffffffffffffffffffffffffffffffffffffff021916908373ffffffffffffffffffffffffffffffffffffffff160217905550808273ffffffffffffffffffffffffffffffffffffffff168473ffffffffffffffffffffffffffffffffffffffff167fddf252ad1be2c89b69c2b068fc378daa952ba7f163c4a11628f55a4df523b3ef60405160405180910390a4611bd1838383611f3a565b505050565b611bf0828260405180602001604052806000815250611f3f565b5050565b8173ffffffffffffffffffffffffffffffffffffffff168373ffffffffffffffffffffffffffffffffffffffff161415611c63576040517f08c379a0000000000000000000000000000000000000000000000000000000008152600401611c5a90613359565b60405180910390fd5b80600560008573ffffffffffffffffffffffffffffffffffffffff1673ffffffffffffffffffffffffffffffffffffffff16815260200190815260200160002060008473ffffffffffffffffffffffffffffffffffffffff1673ffffffffffffffffffffffffffffffffffffffff16815260200190815260200160002060006101000a81548160ff0219169083151502179055508173ffffffffffffffffffffffffffffffffffffffff168373ffffffffffffffffffffffffffffffffffffffff167f17307eab39ab6107e8899845ad3d59bd9653f200f220920489ca2b5937696c3183604051611d549190612422565b60405180910390a3505050565b611d6c84848461196f565b611d7884848484611f9a565b611db7576040517f08c379a0000000000000000000000000000000000000000000000000000000008152600401611dae906133eb565b60405180910390fd5b50505050565b606060405180602001604052806000815250905090565b60606000821415611e1c576040518060400160405280600181526020017f30000000000000000000000000000000000000000000000000000000000000008152509050611f30565b600082905060005b60008214611e4e578080611e379061340b565b915050600a82611e479190613483565b9150611e24565b60008167ffffffffffffffff811115611e6a57611e69612788565b5b6040519080825280601f01601f191660200182016040528015611e9c5781602001600182028036833780820191505090505b5090505b60008514611f2957600182611eb59190612e51565b9150600a85611ec491906134b4565b6030611ed09190612fd8565b60f81b818381518110611ee657611ee5612e85565b5b60200101907effffffffffffffffffffffffffffffffffffffffffffffffffffffffffffff1916908160001a905350600a85611f229190613483565b9450611ea0565b8093505050505b919050565b505050565b505050565b611f498383612131565b611f566000848484611f9a565b611f95576040517f08c379a0000000000000000000000000000000000000000000000000000000008152600401611f8c906133eb565b60405180910390fd5b505050565b6000611fbb8473ffffffffffffffffffffffffffffffffffffffff1661230b565b15612124578373ffffffffffffffffffffffffffffffffffffffff1663150b7a02611fe46117d0565b8786866040518563ffffffff1660e01b8152600401612006949392919061353a565b602060405180830381600087803b15801561202057600080fd5b505af192505050801561205157506040513d601f19601f8201168201806040525081019061204e919061359b565b60015b6120d4573d8060008114612081576040519150601f19603f3d011682016040523d82523d6000602084013e612086565b606091505b506000815114156120cc576040517f08c379a00000000000000000000000000000000000000000000000000000000081526004016120c3906133eb565b60405180910390fd5b805181602001fd5b63150b7a0260e01b7bffffffffffffffffffffffffffffffffffffffffffffffffffffffff1916817bffffffffffffffffffffffffffffffffffffffffffffffffffffffff191614915050612129565b600190505b949350505050565b600073ffffffffffffffffffffffffffffffffffffffff168273ffffffffffffffffffffffffffffffffffffffff1614156121a1576040517f08c379a000000000000000000000000000000000000000000000000000000000815260040161219890613614565b60405180910390fd5b6121aa81611764565b156121ea576040517f08c379a00000000000000000000000000000000000000000000000000000000081526004016121e190613680565b60405180910390fd5b6121f660008383611f35565b6001600360008473ffffffffffffffffffffffffffffffffffffffff1673ffffffffffffffffffffffffffffffffffffffff16815260200190815260200160002060008282546122469190612fd8565b92505081905550816002600083815260200190815260200160002060006101000a81548173ffffffffffffffffffffffffffffffffffffffff021916908373ffffffffffffffffffffffffffffffffffffffff160217905550808273ffffffffffffffffffffffffffffffffffffffff16600073ffffffffffffffffffffffffffffffffffffffff167fddf252ad1be2c89b69c2b068fc378daa952ba7f163c4a11628f55a4df523b3ef60405160405180910390a461230760008383611f3a565b5050565b6000808273ffffffffffffffffffffffffffffffffffffffff163b119050919050565b6040518060800160405280600073ffffffffffffffffffffffffffffffffffffffff16815260200160001515815260200160008152602001600081525090565b6000604051905090565b600080fd5b600080fd5b60007fffffffff0000000000000000000000000000000000000000000000000000000082169050919050565b6123b781612382565b81146123c257600080fd5b50565b6000813590506123d4816123ae565b92915050565b6000602082840312156123f0576123ef612378565b5b60006123fe848285016123c5565b91505092915050565b60008115159050919050565b61241c81612407565b82525050565b60006020820190506124376000830184612413565b92915050565b600081519050919050565b600082825260208201905092915050565b60005b8381101561247757808201518184015260208101905061245c565b83811115612486576000848401525b50505050565b6000601f19601f8301169050919050565b60006124a88261243d565b6124b28185612448565b93506124c2818560208601612459565b6124cb8161248c565b840191505092915050565b600060208201905081810360008301526124f0818461249d565b905092915050565b6000819050919050565b61250b816124f8565b811461251657600080fd5b50565b60008135905061252881612502565b92915050565b60006020828403121561254457612543612378565b5b600061255284828501612519565b91505092915050565b600073ffffffffffffffffffffffffffffffffffffffff82169050919050565b60006125868261255b565b9050919050565b6125968161257b565b82525050565b60006020820190506125b1600083018461258d565b92915050565b6125c08161257b565b81146125cb57600080fd5b50565b6000813590506125dd816125b7565b92915050565b600080604083850312156125fa576125f9612378565b5b6000612608858286016125ce565b925050602061261985828601612519565b9150509250929050565b61262c816124f8565b82525050565b60006020820190506126476000830184612623565b92915050565b60008060006060848603121561266657612665612378565b5b6000612674868287016125ce565b9350506020612685868287016125ce565b925050604061269686828701612519565b9150509250925092565b60006080820190506126b5600083018761258d565b6126c26020830186612413565b6126cf6040830185612623565b6126dc6060830184612623565b95945050505050565b6000602082840312156126fb576126fa612378565b5b6000612709848285016125ce565b91505092915050565b61271b81612407565b811461272657600080fd5b50565b60008135905061273881612712565b92915050565b6000806040838503121561275557612754612378565b5b6000612763858286016125ce565b925050602061277485828601612729565b9150509250929050565b600080fd5b600080fd5b7f4e487b7100000000000000000000000000000000000000000000000000000000600052604160045260246000fd5b6127c08261248c565b810181811067ffffffffffffffff821117156127df576127de612788565b5b80604052505050565b60006127f261236e565b90506127fe82826127b7565b919050565b600067ffffffffffffffff82111561281e5761281d612788565b5b6128278261248c565b9050602081019050919050565b82818337600083830152505050565b600061285661285184612803565b6127e8565b90508281526020810184848401111561287257612871612783565b5b61287d848285612834565b509392505050565b600082601f83011261289a5761289961277e565b5b81356128aa848260208601612843565b91505092915050565b600080600080608085870312156128cd576128cc612378565b5b60006128db878288016125ce565b94505060206128ec878288016125ce565b93505060406128fd87828801612519565b925050606085013567ffffffffffffffff81111561291e5761291d61237d565b5b61292a87828801612885565b91505092959194509250565b61293f8161257b565b82525050565b61294e81612407565b82525050565b61295d816124f8565b82525050565b6080820160008201516129796000850182612936565b50602082015161298c6020850182612945565b50604082015161299f6040850182612954565b5060608201516129b26060850182612954565b50505050565b60006080820190506129cd6000830184612963565b92915050565b600080604083850312156129ea576129e9612378565b5b60006129f885828601612519565b9250506020612a0985828601612519565b9150509250929050565b60008060408385031215612a2a57612a29612378565b5b6000612a38858286016125ce565b9250506020612a49858286016125ce565b9150509250929050565b600081519050919050565b600082825260208201905092915050565b6000819050602082019050919050565b608082016000820151612a956000850182612936565b506020820151612aa86020850182612945565b506040820151612abb6040850182612954565b506060820151612ace6060850182612954565b50505050565b6000612ae08383612a7f565b60808301905092915050565b6000602082019050919050565b6000612b0482612a53565b612b0e8185612a5e565b9350612b1983612a6f565b8060005b83811015612b4a578151612b318882612ad4565b9750612b3c83612aec565b925050600181019050612b1d565b5085935050505092915050565b60006020820190508181036000830152612b718184612af9565b905092915050565b7f4e487b7100000000000000000000000000000000000000000000000000000000600052602260045260246000fd5b60006002820490506001821680612bc057607f821691505b60208210811415612bd457612bd3612b79565b5b50919050565b7f4552433732313a20617070726f76656420717565727920666f72206e6f6e657860008201527f697374656e7420746f6b656e0000000000000000000000000000000000000000602082015250565b6000612c36602c83612448565b9150612c4182612bda565b604082019050919050565b60006020820190508181036000830152612c6581612c29565b9050919050565b7f4552433732313a20617070726f76616c20746f2063757272656e74206f776e6560008201527f7200000000000000000000000000000000000000000000000000000000000000602082015250565b6000612cc8602183612448565b9150612cd382612c6c565b604082019050919050565b60006020820190508181036000830152612cf781612cbb565b9050919050565b7f4552433732313a20617070726f76652063616c6c6572206973206e6f74206f7760008201527f6e6572206e6f7220617070726f76656420666f7220616c6c0000000000000000602082015250565b6000612d5a603883612448565b9150612d6582612cfe565b604082019050919050565b60006020820190508181036000830152612d8981612d4d565b9050919050565b7f4552433732313a207472616e736665722063616c6c6572206973206e6f74206f60008201527f776e6572206e6f7220617070726f766564000000000000000000000000000000602082015250565b6000612dec603183612448565b9150612df782612d90565b604082019050919050565b60006020820190508181036000830152612e1b81612ddf565b9050919050565b7f4e487b7100000000000000000000000000000000000000000000000000000000600052601160045260246000fd5b6000612e5c826124f8565b9150612e67836124f8565b925082821015612e7a57612e79612e22565b5b828203905092915050565b7f4e487b7100000000000000000000000000000000000000000000000000000000600052603260045260246000fd5b7f4552433732313a206f776e657220717565727920666f72206e6f6e657869737460008201527f656e7420746f6b656e0000000000000000000000000000000000000000000000602082015250565b6000612f10602983612448565b9150612f1b82612eb4565b604082019050919050565b60006020820190508181036000830152612f3f81612f03565b9050919050565b7f4552433732313a2062616c616e636520717565727920666f7220746865207a6560008201527f726f206164647265737300000000000000000000000000000000000000000000602082015250565b6000612fa2602a83612448565b9150612fad82612f46565b604082019050919050565b60006020820190508181036000830152612fd181612f95565b9050919050565b6000612fe3826124f8565b9150612fee836124f8565b9250827fffffffffffffffffffffffffffffffffffffffffffffffffffffffffffffffff0382111561302357613022612e22565b5b828201905092915050565b7f4552433732314d657461646174613a2055524920717565727920666f72206e6f60008201527f6e6578697374656e7420746f6b656e0000000000000000000000000000000000602082015250565b600061308a602f83612448565b91506130958261302e565b604082019050919050565b600060208201905081810360008301526130b98161307d565b9050919050565b600081905092915050565b60006130d68261243d565b6130e081856130c0565b93506130f0818560208601612459565b80840191505092915050565b600061310882856130cb565b915061311482846130cb565b91508190509392505050565b60006060820190506131356000830186612623565b6131426020830185612623565b61314f6040830184612413565b949350505050565b7f4552433732313a206f70657261746f7220717565727920666f72206e6f6e657860008201527f697374656e7420746f6b656e0000000000000000000000000000000000000000602082015250565b60006131b3602c83612448565b91506131be82613157565b604082019050919050565b600060208201905081810360008301526131e2816131a6565b9050919050565b7f4552433732313a207472616e736665722066726f6d20696e636f72726563742060008201527f6f776e6572000000000000000000000000000000000000000000000000000000602082015250565b6000613245602583612448565b9150613250826131e9565b604082019050919050565b6000602082019050818103600083015261327481613238565b9050919050565b7f4552433732313a207472616e7366657220746f20746865207a65726f2061646460008201527f7265737300000000000000000000000000000000000000000000000000000000602082015250565b60006132d7602483612448565b91506132e28261327b565b604082019050919050565b60006020820190508181036000830152613306816132ca565b9050919050565b7f4552433732313a20617070726f766520746f2063616c6c657200000000000000600082015250565b6000613343601983612448565b915061334e8261330d565b602082019050919050565b6000602082019050818103600083015261337281613336565b9050919050565b7f4552433732313a207472616e7366657220746f206e6f6e20455243373231526560008201527f63656976657220696d706c656d656e7465720000000000000000000000000000602082015250565b60006133d5603283612448565b91506133e082613379565b604082019050919050565b60006020820190508181036000830152613404816133c8565b9050919050565b6000613416826124f8565b91507fffffffffffffffffffffffffffffffffffffffffffffffffffffffffffffffff82141561344957613448612e22565b5b600182019050919050565b7f4e487b7100000000000000000000000000000000000000000000000000000000600052601260045260246000fd5b600061348e826124f8565b9150613499836124f8565b9250826134a9576134a8613454565b5b828204905092915050565b60006134bf826124f8565b91506134ca836124f8565b9250826134da576134d9613454565b5b828206905092915050565b600081519050919050565b600082825260208201905092915050565b600061350c826134e5565b61351681856134f0565b9350613526818560208601612459565b61352f8161248c565b840191505092915050565b600060808201905061354f600083018761258d565b61355c602083018661258d565b6135696040830185612623565b818103606083015261357b8184613501565b905095945050505050565b600081519050613595816123ae565b92915050565b6000602082840312156135b1576135b0612378565b5b60006135bf84828501613586565b91505092915050565b7f4552433732313a206d696e7420746f20746865207a65726f2061646472657373600082015250565b60006135fe602083612448565b9150613609826135c8565b602082019050919050565b6000602082019050818103600083015261362d816135f1565b9050919050565b7f4552433732313a20746f6b656e20616c7265616479206d696e74656400000000600082015250565b600061366a601c83612448565b915061367582613634565b602082019050919050565b600060208201905081810360008301526136998161365d565b905091905056fea264697066735822122086a68f4435158f96a7b75eb357598cc51be4d9aed4c729ffbc4c3550ccff479364736f6c63430008090033",
  "immutableReferences": {},
  "source": "// SPDX-License-Identifier: MIT\npragma solidity ^0.8.0;\n\nimport \"@openzeppelin/contracts/token/ERC721/ERC721.sol\";\n\n\ncontract Land is ERC721 {\n    uint256 public cost = 2 ether;\n    uint256 public maxSupply = 100;\n    uint256 public totalSupply = 0;\n\n    struct Plot {\n        address owner;\n        bool forSale;\n        uint price;\n        uint256 id;\n    }\n\n    Plot[] public plots;\n\n    constructor(\n        string memory _name,\n        string memory _symbol\n    ) ERC721(_name, _symbol) {\n         for(uint256 id = 0; id<100; id++){\n            plots.push(Plot(address(0x0), true, 2 ether, id));\n            \n        }\n    \n    }\n\n\n    function mint(uint256 _id) public payable {\n        uint256 supply = totalSupply;\n        require(supply <= maxSupply);\n        require(plots[_id - 1].owner == address(0x0));\n        require(msg.value >= plots[_id - 1].price);\n\n        // NOTE: tokenID always starts from 1, but our array starts from 0\n        plots[_id - 1].owner = msg.sender;\n        plots[_id - 1].forSale = false;\n        totalSupply = totalSupply + 1;\n\n        _safeMint(msg.sender, _id);\n    }\n\n    function transferFrom(\n        address from,\n        address to,\n        uint256 tokenId\n    ) public override {\n        require(\n            _isApprovedOrOwner(_msgSender(), tokenId),\n            \"ERC721: transfer caller is not owner nor approved\"\n        );\n\n        // Update Building ownership\n        plots[tokenId - 1].owner = to;\n\n        _transfer(from, to, tokenId);\n    }\n\n    function safeTransferFrom(\n        address from,\n        address to,\n        uint256 tokenId,\n        bytes memory _data\n    ) public override {\n        require(\n            _isApprovedOrOwner(_msgSender(), tokenId),\n            \"ERC721: transfer caller is not owner nor approved\"\n        );\n\n        // Update Building ownership\n        plots[tokenId - 1].owner = to;\n\n        _safeTransfer(from, to, tokenId, _data);\n    }\n\n    // Public View Functions\n    function getPlots() public view returns (Plot[] memory) {\n        return plots;\n    }\n\n    function getPlot(uint256 _id) public view returns (Plot memory) {\n        return plots[_id - 1];\n    }\n\n    function putPlotUpForSale(uint256 _id, uint price) public {\n\n        \n        require(msg.sender == plots[_id - 1].owner && price > 0);\n        \n        plots[_id - 1].forSale = true;\n        plots[_id - 1].price = price;\n        emit PlotAvailabilityChanged(_id, price, true);\n    }\n    \n    function takeOffMarket(uint256 _id) public {\n    \n        \n        require(msg.sender == plots[_id - 1].owner);\n        \n        plots[_id - 1].forSale = false;\n        emit PlotAvailabilityChanged(_id, plots[_id - 1].price, false);\n    }\n\n    function buyPlot(uint256 _id) public payable {\n\n \n        // Fetch the owner\n        address payable _seller = payable(plots[_id - 1].owner);\n        // Make sure the product has a valid id\n        require(plots[_id - 1].id > 0 && plots[_id - 1].id <= maxSupply);\n        // Require that there is enough Ether in the transaction\n        require(msg.value >= plots[_id - 1].price);\n        // Require that the product has not been purchased already\n        require(plots[_id - 1].forSale);\n        // Require that the buyer is not the seller\n        require(_seller != msg.sender);\n        // Transfer ownership to the buyer\n        plots[_id - 1].owner = msg.sender;\n        // Mark as purchased\n        plots[_id - 1].forSale = false;\n        // Update the product\n        // Pay the seller by sending them Ether\n        _seller.transfer(msg.value);\n        // Trigger an event\n        emit PlotOwnerChanged(_id);\n\n    }\n    event PlotOwnerChanged(\n        uint index\n    );\n    \n    event PlotPriceChanged(\n        uint index,\n        uint price\n    );\n    \n    event PlotAvailabilityChanged(\n        uint index,\n        uint price,\n        bool forSale\n    );\n}\n",
  "sourcePath": "/Users/simonbonnedahl/CababoLand/src/contracts/Land.sol",
  "compiler": {
    "name": "solc",
    "version": "0.8.9+commit.e5eed63a.Emscripten.clang"
  },
  "schemaVersion": "3.4.6",
  "updatedAt": "2022-06-07T11:09:01.873Z",
  "networkType": "ethereum",
  "devdoc": {
    "kind": "dev",
    "methods": {
      "approve(address,uint256)": {
        "details": "See {IERC721-approve}."
      },
      "balanceOf(address)": {
        "details": "See {IERC721-balanceOf}."
      },
      "getApproved(uint256)": {
        "details": "See {IERC721-getApproved}."
      },
      "isApprovedForAll(address,address)": {
        "details": "See {IERC721-isApprovedForAll}."
      },
      "name()": {
        "details": "See {IERC721Metadata-name}."
      },
      "ownerOf(uint256)": {
        "details": "See {IERC721-ownerOf}."
      },
      "safeTransferFrom(address,address,uint256)": {
        "details": "See {IERC721-safeTransferFrom}."
      },
      "safeTransferFrom(address,address,uint256,bytes)": {
        "details": "See {IERC721-safeTransferFrom}."
      },
      "setApprovalForAll(address,bool)": {
        "details": "See {IERC721-setApprovalForAll}."
      },
      "supportsInterface(bytes4)": {
        "details": "See {IERC165-supportsInterface}."
      },
      "symbol()": {
        "details": "See {IERC721Metadata-symbol}."
      },
      "tokenURI(uint256)": {
        "details": "See {IERC721Metadata-tokenURI}."
      },
      "transferFrom(address,address,uint256)": {
        "details": "See {IERC721-transferFrom}."
      }
    },
    "version": 1
  },
  "userdoc": {
    "kind": "user",
    "methods": {},
    "version": 1
  }
}