{
  "contractName": "Land",
  "abi": [
    {
      "inputs": [
        {
          "internalType": "string",
          "name": "_name",
          "type": "string"
        },
        {
          "internalType": "string",
          "name": "_symbol",
          "type": "string"
        },
        {
          "internalType": "uint256",
          "name": "_cost",
          "type": "uint256"
        }
      ],
      "stateMutability": "nonpayable",
      "type": "constructor"
    },
    {
      "anonymous": false,
      "inputs": [
        {
          "indexed": true,
          "internalType": "address",
          "name": "owner",
          "type": "address"
        },
        {
          "indexed": true,
          "internalType": "address",
          "name": "approved",
          "type": "address"
        },
        {
          "indexed": true,
          "internalType": "uint256",
          "name": "tokenId",
          "type": "uint256"
        }
      ],
      "name": "Approval",
      "type": "event"
    },
    {
      "anonymous": false,
      "inputs": [
        {
          "indexed": true,
          "internalType": "address",
          "name": "owner",
          "type": "address"
        },
        {
          "indexed": true,
          "internalType": "address",
          "name": "operator",
          "type": "address"
        },
        {
          "indexed": false,
          "internalType": "bool",
          "name": "approved",
          "type": "bool"
        }
      ],
      "name": "ApprovalForAll",
      "type": "event"
    },
    {
      "anonymous": false,
      "inputs": [
        {
          "indexed": true,
          "internalType": "address",
          "name": "from",
          "type": "address"
        },
        {
          "indexed": true,
          "internalType": "address",
          "name": "to",
          "type": "address"
        },
        {
          "indexed": true,
          "internalType": "uint256",
          "name": "tokenId",
          "type": "uint256"
        }
      ],
      "name": "Transfer",
      "type": "event"
    },
    {
      "inputs": [
        {
          "internalType": "address",
          "name": "to",
          "type": "address"
        },
        {
          "internalType": "uint256",
          "name": "tokenId",
          "type": "uint256"
        }
      ],
      "name": "approve",
      "outputs": [],
      "stateMutability": "nonpayable",
      "type": "function"
    },
    {
      "inputs": [
        {
          "internalType": "address",
          "name": "owner",
          "type": "address"
        }
      ],
      "name": "balanceOf",
      "outputs": [
        {
          "internalType": "uint256",
          "name": "",
          "type": "uint256"
        }
      ],
      "stateMutability": "view",
      "type": "function",
      "constant": true
    },
    {
      "inputs": [],
      "name": "cost",
      "outputs": [
        {
          "internalType": "uint256",
          "name": "",
          "type": "uint256"
        }
      ],
      "stateMutability": "view",
      "type": "function",
      "constant": true
    },
    {
      "inputs": [
        {
          "internalType": "uint256",
          "name": "tokenId",
          "type": "uint256"
        }
      ],
      "name": "getApproved",
      "outputs": [
        {
          "internalType": "address",
          "name": "",
          "type": "address"
        }
      ],
      "stateMutability": "view",
      "type": "function",
      "constant": true
    },
    {
      "inputs": [
        {
          "internalType": "address",
          "name": "owner",
          "type": "address"
        },
        {
          "internalType": "address",
          "name": "operator",
          "type": "address"
        }
      ],
      "name": "isApprovedForAll",
      "outputs": [
        {
          "internalType": "bool",
          "name": "",
          "type": "bool"
        }
      ],
      "stateMutability": "view",
      "type": "function",
      "constant": true
    },
    {
      "inputs": [],
      "name": "maxSupply",
      "outputs": [
        {
          "internalType": "uint256",
          "name": "",
          "type": "uint256"
        }
      ],
      "stateMutability": "view",
      "type": "function",
      "constant": true
    },
    {
      "inputs": [],
      "name": "name",
      "outputs": [
        {
          "internalType": "string",
          "name": "",
          "type": "string"
        }
      ],
      "stateMutability": "view",
      "type": "function",
      "constant": true
    },
    {
      "inputs": [
        {
          "internalType": "uint256",
          "name": "tokenId",
          "type": "uint256"
        }
      ],
      "name": "ownerOf",
      "outputs": [
        {
          "internalType": "address",
          "name": "",
          "type": "address"
        }
      ],
      "stateMutability": "view",
      "type": "function",
      "constant": true
    },
    {
      "inputs": [
        {
          "internalType": "uint256",
          "name": "",
          "type": "uint256"
        }
      ],
      "name": "plots",
      "outputs": [
        {
          "internalType": "address",
          "name": "owner",
          "type": "address"
        },
        {
          "internalType": "int256",
          "name": "id",
          "type": "int256"
        }
      ],
      "stateMutability": "view",
      "type": "function",
      "constant": true
    },
    {
      "inputs": [
        {
          "internalType": "address",
          "name": "operator",
          "type": "address"
        },
        {
          "internalType": "bool",
          "name": "approved",
          "type": "bool"
        }
      ],
      "name": "setApprovalForAll",
      "outputs": [],
      "stateMutability": "nonpayable",
      "type": "function"
    },
    {
      "inputs": [
        {
          "internalType": "bytes4",
          "name": "interfaceId",
          "type": "bytes4"
        }
      ],
      "name": "supportsInterface",
      "outputs": [
        {
          "internalType": "bool",
          "name": "",
          "type": "bool"
        }
      ],
      "stateMutability": "view",
      "type": "function",
      "constant": true
    },
    {
      "inputs": [],
      "name": "symbol",
      "outputs": [
        {
          "internalType": "string",
          "name": "",
          "type": "string"
        }
      ],
      "stateMutability": "view",
      "type": "function",
      "constant": true
    },
    {
      "inputs": [
        {
          "internalType": "uint256",
          "name": "tokenId",
          "type": "uint256"
        }
      ],
      "name": "tokenURI",
      "outputs": [
        {
          "internalType": "string",
          "name": "",
          "type": "string"
        }
      ],
      "stateMutability": "view",
      "type": "function",
      "constant": true
    },
    {
      "inputs": [],
      "name": "totalSupply",
      "outputs": [
        {
          "internalType": "uint256",
          "name": "",
          "type": "uint256"
        }
      ],
      "stateMutability": "view",
      "type": "function",
      "constant": true
    },
    {
      "inputs": [],
      "name": "worldSize",
      "outputs": [
        {
          "internalType": "uint256",
          "name": "",
          "type": "uint256"
        }
      ],
      "stateMutability": "view",
      "type": "function",
      "constant": true
    },
    {
      "inputs": [
        {
          "internalType": "uint256",
          "name": "_id",
          "type": "uint256"
        }
      ],
      "name": "mint",
      "outputs": [],
      "stateMutability": "payable",
      "type": "function",
      "payable": true
    },
    {
      "inputs": [
        {
          "internalType": "address",
          "name": "from",
          "type": "address"
        },
        {
          "internalType": "address",
          "name": "to",
          "type": "address"
        },
        {
          "internalType": "uint256",
          "name": "tokenId",
          "type": "uint256"
        }
      ],
      "name": "transferFrom",
      "outputs": [],
      "stateMutability": "nonpayable",
      "type": "function"
    },
    {
      "inputs": [
        {
          "internalType": "address",
          "name": "from",
          "type": "address"
        },
        {
          "internalType": "address",
          "name": "to",
          "type": "address"
        },
        {
          "internalType": "uint256",
          "name": "tokenId",
          "type": "uint256"
        }
      ],
      "name": "safeTransferFrom",
      "outputs": [],
      "stateMutability": "nonpayable",
      "type": "function"
    },
    {
      "inputs": [
        {
          "internalType": "address",
          "name": "from",
          "type": "address"
        },
        {
          "internalType": "address",
          "name": "to",
          "type": "address"
        },
        {
          "internalType": "uint256",
          "name": "tokenId",
          "type": "uint256"
        },
        {
          "internalType": "bytes",
          "name": "_data",
          "type": "bytes"
        }
      ],
      "name": "safeTransferFrom",
      "outputs": [],
      "stateMutability": "nonpayable",
      "type": "function"
    },
    {
      "inputs": [],
      "name": "getPlots",
      "outputs": [
        {
          "components": [
            {
              "internalType": "address",
              "name": "owner",
              "type": "address"
            },
            {
              "internalType": "int256",
              "name": "id",
              "type": "int256"
            }
          ],
          "internalType": "struct Land.Plot[]",
          "name": "",
          "type": "tuple[]"
        }
      ],
      "stateMutability": "view",
      "type": "function",
      "constant": true
    },
    {
      "inputs": [
        {
          "internalType": "uint256",
          "name": "_id",
          "type": "uint256"
        }
      ],
      "name": "getPlot",
      "outputs": [
        {
          "components": [
            {
              "internalType": "address",
              "name": "owner",
              "type": "address"
            },
            {
              "internalType": "int256",
              "name": "id",
              "type": "int256"
            }
          ],
          "internalType": "struct Land.Plot",
          "name": "",
          "type": "tuple"
        }
      ],
      "stateMutability": "view",
      "type": "function",
      "constant": true
    }
  ],
  "bytecode": "0x6080604052670de0b6b3a764000060065560646007556000600855600a6009553480156200002c57600080fd5b50604051620034de380380620034de8339818101604052810190620000529190620003ee565b828281600090805190602001906200006c92919062000166565b5080600190805190602001906200008592919062000166565b5050508060068190555060005b60648112156200015c57600a6040518060400160405280600073ffffffffffffffffffffffffffffffffffffffff16815260200183815250908060018154018082558091505060019003906000526020600020906002020160009091909190915060008201518160000160006101000a81548173ffffffffffffffffffffffffffffffffffffffff021916908373ffffffffffffffffffffffffffffffffffffffff16021790555060208201518160010155505080806200015390620004c1565b91505062000092565b5050505062000574565b82805462000174906200053e565b90600052602060002090601f016020900481019282620001985760008555620001e4565b82601f10620001b357805160ff1916838001178555620001e4565b82800160010185558215620001e4579182015b82811115620001e3578251825591602001919060010190620001c6565b5b509050620001f39190620001f7565b5090565b5b8082111562000212576000816000905550600101620001f8565b5090565b6000604051905090565b600080fd5b600080fd5b600080fd5b600080fd5b6000601f19601f8301169050919050565b7f4e487b7100000000000000000000000000000000000000000000000000000000600052604160045260246000fd5b6200027f8262000234565b810181811067ffffffffffffffff82111715620002a157620002a062000245565b5b80604052505050565b6000620002b662000216565b9050620002c4828262000274565b919050565b600067ffffffffffffffff821115620002e757620002e662000245565b5b620002f28262000234565b9050602081019050919050565b60005b838110156200031f57808201518184015260208101905062000302565b838111156200032f576000848401525b50505050565b60006200034c6200034684620002c9565b620002aa565b9050828152602081018484840111156200036b576200036a6200022f565b5b62000378848285620002ff565b509392505050565b600082601f8301126200039857620003976200022a565b5b8151620003aa84826020860162000335565b91505092915050565b6000819050919050565b620003c881620003b3565b8114620003d457600080fd5b50565b600081519050620003e881620003bd565b92915050565b6000806000606084860312156200040a576200040962000220565b5b600084015167ffffffffffffffff8111156200042b576200042a62000225565b5b620004398682870162000380565b935050602084015167ffffffffffffffff8111156200045d576200045c62000225565b5b6200046b8682870162000380565b92505060406200047e86828701620003d7565b9150509250925092565b7f4e487b7100000000000000000000000000000000000000000000000000000000600052601160045260246000fd5b6000819050919050565b6000620004ce82620004b7565b91507f7fffffffffffffffffffffffffffffffffffffffffffffffffffffffffffffff82141562000504576200050362000488565b5b600182019050919050565b7f4e487b7100000000000000000000000000000000000000000000000000000000600052602260045260246000fd5b600060028204905060018216806200055757607f821691505b602082108114156200056e576200056d6200050f565b5b50919050565b612f5a80620005846000396000f3fe60806040526004361061012a5760003560e01c80636352211e116100ab578063b88d4fde1161006f578063b88d4fde146103f8578063c87b56dd14610421578063cfdd4fbd1461045e578063d5abeb011461049b578063e985e9c5146104c6578063f9cf80a9146105035761012a565b80636352211e1461030e57806370a082311461034b57806395d89b4114610388578063a0712d68146103b3578063a22cb465146103cf5761012a565b806318160ddd116100f257806318160ddd1461022857806323b872dd1461025357806342842e0e1461027c5780635677afbc146102a557806361bf49ee146102d05761012a565b806301ffc9a71461012f57806306fdde031461016c578063081812fc14610197578063095ea7b3146101d457806313faede6146101fd575b600080fd5b34801561013b57600080fd5b5061015660048036038101906101519190611d33565b61052e565b6040516101639190611d7b565b60405180910390f35b34801561017857600080fd5b50610181610610565b60405161018e9190611e2f565b60405180910390f35b3480156101a357600080fd5b506101be60048036038101906101b99190611e87565b6106a2565b6040516101cb9190611ef5565b60405180910390f35b3480156101e057600080fd5b506101fb60048036038101906101f69190611f3c565b610727565b005b34801561020957600080fd5b5061021261083f565b60405161021f9190611f8b565b60405180910390f35b34801561023457600080fd5b5061023d610845565b60405161024a9190611f8b565b60405180910390f35b34801561025f57600080fd5b5061027a60048036038101906102759190611fa6565b61084b565b005b34801561028857600080fd5b506102a3600480360381019061029e9190611fa6565b61091b565b005b3480156102b157600080fd5b506102ba61093b565b6040516102c79190611f8b565b60405180910390f35b3480156102dc57600080fd5b506102f760048036038101906102f29190611e87565b610941565b604051610305929190612012565b60405180910390f35b34801561031a57600080fd5b5061033560048036038101906103309190611e87565b610995565b6040516103429190611ef5565b60405180910390f35b34801561035757600080fd5b50610372600480360381019061036d919061203b565b610a47565b60405161037f9190611f8b565b60405180910390f35b34801561039457600080fd5b5061039d610aff565b6040516103aa9190611e2f565b60405180910390f35b6103cd60048036038101906103c89190611e87565b610b91565b005b3480156103db57600080fd5b506103f660048036038101906103f19190612094565b610cd3565b005b34801561040457600080fd5b5061041f600480360381019061041a9190612209565b610ce9565b005b34801561042d57600080fd5b5061044860048036038101906104439190611e87565b610dbb565b6040516104559190611e2f565b60405180910390f35b34801561046a57600080fd5b5061048560048036038101906104809190611e87565b610e62565b60405161049291906122d9565b60405180910390f35b3480156104a757600080fd5b506104b0610f0a565b6040516104bd9190611f8b565b60405180910390f35b3480156104d257600080fd5b506104ed60048036038101906104e891906122f4565b610f10565b6040516104fa9190611d7b565b60405180910390f35b34801561050f57600080fd5b50610518610fa4565b6040516105259190612412565b60405180910390f35b60007f80ac58cd000000000000000000000000000000000000000000000000000000007bffffffffffffffffffffffffffffffffffffffffffffffffffffffff1916827bffffffffffffffffffffffffffffffffffffffffffffffffffffffff191614806105f957507f5b5e139f000000000000000000000000000000000000000000000000000000007bffffffffffffffffffffffffffffffffffffffffffffffffffffffff1916827bffffffffffffffffffffffffffffffffffffffffffffffffffffffff1916145b80610609575061060882611063565b5b9050919050565b60606000805461061f90612463565b80601f016020809104026020016040519081016040528092919081815260200182805461064b90612463565b80156106985780601f1061066d57610100808354040283529160200191610698565b820191906000526020600020905b81548152906001019060200180831161067b57829003601f168201915b5050505050905090565b60006106ad826110cd565b6106ec576040517f08c379a00000000000000000000000000000000000000000000000000000000081526004016106e390612507565b60405180910390fd5b6004600083815260200190815260200160002060009054906101000a900473ffffffffffffffffffffffffffffffffffffffff169050919050565b600061073282610995565b90508073ffffffffffffffffffffffffffffffffffffffff168373ffffffffffffffffffffffffffffffffffffffff1614156107a3576040517f08c379a000000000000000000000000000000000000000000000000000000000815260040161079a90612599565b60405180910390fd5b8073ffffffffffffffffffffffffffffffffffffffff166107c2611139565b73ffffffffffffffffffffffffffffffffffffffff1614806107f157506107f0816107eb611139565b610f10565b5b610830576040517f08c379a00000000000000000000000000000000000000000000000000000000081526004016108279061262b565b60405180910390fd5b61083a8383611141565b505050565b60065481565b60085481565b61085c610856611139565b826111fa565b61089b576040517f08c379a0000000000000000000000000000000000000000000000000000000008152600401610892906126bd565b60405180910390fd5b81600a6001836108ab919061270c565b815481106108bc576108bb612740565b5b906000526020600020906002020160000160006101000a81548173ffffffffffffffffffffffffffffffffffffffff021916908373ffffffffffffffffffffffffffffffffffffffff1602179055506109168383836112d8565b505050565b61093683838360405180602001604052806000815250610ce9565b505050565b60095481565b600a818154811061095157600080fd5b90600052602060002090600202016000915090508060000160009054906101000a900473ffffffffffffffffffffffffffffffffffffffff16908060010154905082565b6000806002600084815260200190815260200160002060009054906101000a900473ffffffffffffffffffffffffffffffffffffffff169050600073ffffffffffffffffffffffffffffffffffffffff168173ffffffffffffffffffffffffffffffffffffffff161415610a3e576040517f08c379a0000000000000000000000000000000000000000000000000000000008152600401610a35906127e1565b60405180910390fd5b80915050919050565b60008073ffffffffffffffffffffffffffffffffffffffff168273ffffffffffffffffffffffffffffffffffffffff161415610ab8576040517f08c379a0000000000000000000000000000000000000000000000000000000008152600401610aaf90612873565b60405180910390fd5b600360008373ffffffffffffffffffffffffffffffffffffffff1673ffffffffffffffffffffffffffffffffffffffff168152602001908152602001600020549050919050565b606060018054610b0e90612463565b80601f0160208091040260200160405190810160405280929190818152602001828054610b3a90612463565b8015610b875780601f10610b5c57610100808354040283529160200191610b87565b820191906000526020600020905b815481529060010190602001808311610b6a57829003601f168201915b5050505050905090565b60006008549050600754811115610ba757600080fd5b600073ffffffffffffffffffffffffffffffffffffffff16600a600184610bce919061270c565b81548110610bdf57610bde612740565b5b906000526020600020906002020160000160009054906101000a900473ffffffffffffffffffffffffffffffffffffffff1673ffffffffffffffffffffffffffffffffffffffff1614610c3157600080fd5b600654341015610c4057600080fd5b33600a600184610c50919061270c565b81548110610c6157610c60612740565b5b906000526020600020906002020160000160006101000a81548173ffffffffffffffffffffffffffffffffffffffff021916908373ffffffffffffffffffffffffffffffffffffffff1602179055506001600854610cbf9190612893565b600881905550610ccf338361153f565b5050565b610ce5610cde611139565b838361155d565b5050565b610cfa610cf4611139565b836111fa565b610d39576040517f08c379a0000000000000000000000000000000000000000000000000000000008152600401610d30906126bd565b60405180910390fd5b82600a600184610d49919061270c565b81548110610d5a57610d59612740565b5b906000526020600020906002020160000160006101000a81548173ffffffffffffffffffffffffffffffffffffffff021916908373ffffffffffffffffffffffffffffffffffffffff160217905550610db5848484846116ca565b50505050565b6060610dc6826110cd565b610e05576040517f08c379a0000000000000000000000000000000000000000000000000000000008152600401610dfc9061295b565b60405180910390fd5b6000610e0f611726565b90506000815111610e2f5760405180602001604052806000815250610e5a565b80610e398461173d565b604051602001610e4a9291906129b7565b6040516020818303038152906040525b915050919050565b610e6a611c97565b600a600183610e79919061270c565b81548110610e8a57610e89612740565b5b90600052602060002090600202016040518060400160405290816000820160009054906101000a900473ffffffffffffffffffffffffffffffffffffffff1673ffffffffffffffffffffffffffffffffffffffff1673ffffffffffffffffffffffffffffffffffffffff1681526020016001820154815250509050919050565b60075481565b6000600560008473ffffffffffffffffffffffffffffffffffffffff1673ffffffffffffffffffffffffffffffffffffffff16815260200190815260200160002060008373ffffffffffffffffffffffffffffffffffffffff1673ffffffffffffffffffffffffffffffffffffffff16815260200190815260200160002060009054906101000a900460ff16905092915050565b6060600a805480602002602001604051908101604052809291908181526020016000905b8282101561105a57838290600052602060002090600202016040518060400160405290816000820160009054906101000a900473ffffffffffffffffffffffffffffffffffffffff1673ffffffffffffffffffffffffffffffffffffffff1673ffffffffffffffffffffffffffffffffffffffff16815260200160018201548152505081526020019060010190610fc8565b50505050905090565b60007f01ffc9a7000000000000000000000000000000000000000000000000000000007bffffffffffffffffffffffffffffffffffffffffffffffffffffffff1916827bffffffffffffffffffffffffffffffffffffffffffffffffffffffff1916149050919050565b60008073ffffffffffffffffffffffffffffffffffffffff166002600084815260200190815260200160002060009054906101000a900473ffffffffffffffffffffffffffffffffffffffff1673ffffffffffffffffffffffffffffffffffffffff1614159050919050565b600033905090565b816004600083815260200190815260200160002060006101000a81548173ffffffffffffffffffffffffffffffffffffffff021916908373ffffffffffffffffffffffffffffffffffffffff160217905550808273ffffffffffffffffffffffffffffffffffffffff166111b483610995565b73ffffffffffffffffffffffffffffffffffffffff167f8c5be1e5ebec7d5bd14f71427d1e84f3dd0314c0f7b2291e5b200ac8c7c3b92560405160405180910390a45050565b6000611205826110cd565b611244576040517f08c379a000000000000000000000000000000000000000000000000000000000815260040161123b90612a4d565b60405180910390fd5b600061124f83610995565b90508073ffffffffffffffffffffffffffffffffffffffff168473ffffffffffffffffffffffffffffffffffffffff1614806112be57508373ffffffffffffffffffffffffffffffffffffffff166112a6846106a2565b73ffffffffffffffffffffffffffffffffffffffff16145b806112cf57506112ce8185610f10565b5b91505092915050565b8273ffffffffffffffffffffffffffffffffffffffff166112f882610995565b73ffffffffffffffffffffffffffffffffffffffff161461134e576040517f08c379a000000000000000000000000000000000000000000000000000000000815260040161134590612adf565b60405180910390fd5b600073ffffffffffffffffffffffffffffffffffffffff168273ffffffffffffffffffffffffffffffffffffffff1614156113be576040517f08c379a00000000000000000000000000000000000000000000000000000000081526004016113b590612b71565b60405180910390fd5b6113c983838361189e565b6113d4600082611141565b6001600360008573ffffffffffffffffffffffffffffffffffffffff1673ffffffffffffffffffffffffffffffffffffffff1681526020019081526020016000206000828254611424919061270c565b925050819055506001600360008473ffffffffffffffffffffffffffffffffffffffff1673ffffffffffffffffffffffffffffffffffffffff168152602001908152602001600020600082825461147b9190612893565b92505081905550816002600083815260200190815260200160002060006101000a81548173ffffffffffffffffffffffffffffffffffffffff021916908373ffffffffffffffffffffffffffffffffffffffff160217905550808273ffffffffffffffffffffffffffffffffffffffff168473ffffffffffffffffffffffffffffffffffffffff167fddf252ad1be2c89b69c2b068fc378daa952ba7f163c4a11628f55a4df523b3ef60405160405180910390a461153a8383836118a3565b505050565b6115598282604051806020016040528060008152506118a8565b5050565b8173ffffffffffffffffffffffffffffffffffffffff168373ffffffffffffffffffffffffffffffffffffffff1614156115cc576040517f08c379a00000000000000000000000000000000000000000000000000000000081526004016115c390612bdd565b60405180910390fd5b80600560008573ffffffffffffffffffffffffffffffffffffffff1673ffffffffffffffffffffffffffffffffffffffff16815260200190815260200160002060008473ffffffffffffffffffffffffffffffffffffffff1673ffffffffffffffffffffffffffffffffffffffff16815260200190815260200160002060006101000a81548160ff0219169083151502179055508173ffffffffffffffffffffffffffffffffffffffff168373ffffffffffffffffffffffffffffffffffffffff167f17307eab39ab6107e8899845ad3d59bd9653f200f220920489ca2b5937696c31836040516116bd9190611d7b565b60405180910390a3505050565b6116d58484846112d8565b6116e184848484611903565b611720576040517f08c379a000000000000000000000000000000000000000000000000000000000815260040161171790612c6f565b60405180910390fd5b50505050565b606060405180602001604052806000815250905090565b60606000821415611785576040518060400160405280600181526020017f30000000000000000000000000000000000000000000000000000000000000008152509050611899565b600082905060005b600082146117b75780806117a090612c8f565b915050600a826117b09190612d07565b915061178d565b60008167ffffffffffffffff8111156117d3576117d26120de565b5b6040519080825280601f01601f1916602001820160405280156118055781602001600182028036833780820191505090505b5090505b600085146118925760018261181e919061270c565b9150600a8561182d9190612d38565b60306118399190612893565b60f81b81838151811061184f5761184e612740565b5b60200101907effffffffffffffffffffffffffffffffffffffffffffffffffffffffffffff1916908160001a905350600a8561188b9190612d07565b9450611809565b8093505050505b919050565b505050565b505050565b6118b28383611a9a565b6118bf6000848484611903565b6118fe576040517f08c379a00000000000000000000000000000000000000000000000000000000081526004016118f590612c6f565b60405180910390fd5b505050565b60006119248473ffffffffffffffffffffffffffffffffffffffff16611c74565b15611a8d578373ffffffffffffffffffffffffffffffffffffffff1663150b7a0261194d611139565b8786866040518563ffffffff1660e01b815260040161196f9493929190612dbe565b602060405180830381600087803b15801561198957600080fd5b505af19250505080156119ba57506040513d601f19601f820116820180604052508101906119b79190612e1f565b60015b611a3d573d80600081146119ea576040519150601f19603f3d011682016040523d82523d6000602084013e6119ef565b606091505b50600081511415611a35576040517f08c379a0000000000000000000000000000000000000000000000000000000008152600401611a2c90612c6f565b60405180910390fd5b805181602001fd5b63150b7a0260e01b7bffffffffffffffffffffffffffffffffffffffffffffffffffffffff1916817bffffffffffffffffffffffffffffffffffffffffffffffffffffffff191614915050611a92565b600190505b949350505050565b600073ffffffffffffffffffffffffffffffffffffffff168273ffffffffffffffffffffffffffffffffffffffff161415611b0a576040517f08c379a0000000000000000000000000000000000000000000000000000000008152600401611b0190612e98565b60405180910390fd5b611b13816110cd565b15611b53576040517f08c379a0000000000000000000000000000000000000000000000000000000008152600401611b4a90612f04565b60405180910390fd5b611b5f6000838361189e565b6001600360008473ffffffffffffffffffffffffffffffffffffffff1673ffffffffffffffffffffffffffffffffffffffff1681526020019081526020016000206000828254611baf9190612893565b92505081905550816002600083815260200190815260200160002060006101000a81548173ffffffffffffffffffffffffffffffffffffffff021916908373ffffffffffffffffffffffffffffffffffffffff160217905550808273ffffffffffffffffffffffffffffffffffffffff16600073ffffffffffffffffffffffffffffffffffffffff167fddf252ad1be2c89b69c2b068fc378daa952ba7f163c4a11628f55a4df523b3ef60405160405180910390a4611c70600083836118a3565b5050565b6000808273ffffffffffffffffffffffffffffffffffffffff163b119050919050565b6040518060400160405280600073ffffffffffffffffffffffffffffffffffffffff168152602001600081525090565b6000604051905090565b600080fd5b600080fd5b60007fffffffff0000000000000000000000000000000000000000000000000000000082169050919050565b611d1081611cdb565b8114611d1b57600080fd5b50565b600081359050611d2d81611d07565b92915050565b600060208284031215611d4957611d48611cd1565b5b6000611d5784828501611d1e565b91505092915050565b60008115159050919050565b611d7581611d60565b82525050565b6000602082019050611d906000830184611d6c565b92915050565b600081519050919050565b600082825260208201905092915050565b60005b83811015611dd0578082015181840152602081019050611db5565b83811115611ddf576000848401525b50505050565b6000601f19601f8301169050919050565b6000611e0182611d96565b611e0b8185611da1565b9350611e1b818560208601611db2565b611e2481611de5565b840191505092915050565b60006020820190508181036000830152611e498184611df6565b905092915050565b6000819050919050565b611e6481611e51565b8114611e6f57600080fd5b50565b600081359050611e8181611e5b565b92915050565b600060208284031215611e9d57611e9c611cd1565b5b6000611eab84828501611e72565b91505092915050565b600073ffffffffffffffffffffffffffffffffffffffff82169050919050565b6000611edf82611eb4565b9050919050565b611eef81611ed4565b82525050565b6000602082019050611f0a6000830184611ee6565b92915050565b611f1981611ed4565b8114611f2457600080fd5b50565b600081359050611f3681611f10565b92915050565b60008060408385031215611f5357611f52611cd1565b5b6000611f6185828601611f27565b9250506020611f7285828601611e72565b9150509250929050565b611f8581611e51565b82525050565b6000602082019050611fa06000830184611f7c565b92915050565b600080600060608486031215611fbf57611fbe611cd1565b5b6000611fcd86828701611f27565b9350506020611fde86828701611f27565b9250506040611fef86828701611e72565b9150509250925092565b6000819050919050565b61200c81611ff9565b82525050565b60006040820190506120276000830185611ee6565b6120346020830184612003565b9392505050565b60006020828403121561205157612050611cd1565b5b600061205f84828501611f27565b91505092915050565b61207181611d60565b811461207c57600080fd5b50565b60008135905061208e81612068565b92915050565b600080604083850312156120ab576120aa611cd1565b5b60006120b985828601611f27565b92505060206120ca8582860161207f565b9150509250929050565b600080fd5b600080fd5b7f4e487b7100000000000000000000000000000000000000000000000000000000600052604160045260246000fd5b61211682611de5565b810181811067ffffffffffffffff82111715612135576121346120de565b5b80604052505050565b6000612148611cc7565b9050612154828261210d565b919050565b600067ffffffffffffffff821115612174576121736120de565b5b61217d82611de5565b9050602081019050919050565b82818337600083830152505050565b60006121ac6121a784612159565b61213e565b9050828152602081018484840111156121c8576121c76120d9565b5b6121d384828561218a565b509392505050565b600082601f8301126121f0576121ef6120d4565b5b8135612200848260208601612199565b91505092915050565b6000806000806080858703121561222357612222611cd1565b5b600061223187828801611f27565b945050602061224287828801611f27565b935050604061225387828801611e72565b925050606085013567ffffffffffffffff81111561227457612273611cd6565b5b612280878288016121db565b91505092959194509250565b61229581611ed4565b82525050565b6122a481611ff9565b82525050565b6040820160008201516122c0600085018261228c565b5060208201516122d3602085018261229b565b50505050565b60006040820190506122ee60008301846122aa565b92915050565b6000806040838503121561230b5761230a611cd1565b5b600061231985828601611f27565b925050602061232a85828601611f27565b9150509250929050565b600081519050919050565b600082825260208201905092915050565b6000819050602082019050919050565b604082016000820151612376600085018261228c565b506020820151612389602085018261229b565b50505050565b600061239b8383612360565b60408301905092915050565b6000602082019050919050565b60006123bf82612334565b6123c9818561233f565b93506123d483612350565b8060005b838110156124055781516123ec888261238f565b97506123f7836123a7565b9250506001810190506123d8565b5085935050505092915050565b6000602082019050818103600083015261242c81846123b4565b905092915050565b7f4e487b7100000000000000000000000000000000000000000000000000000000600052602260045260246000fd5b6000600282049050600182168061247b57607f821691505b6020821081141561248f5761248e612434565b5b50919050565b7f4552433732313a20617070726f76656420717565727920666f72206e6f6e657860008201527f697374656e7420746f6b656e0000000000000000000000000000000000000000602082015250565b60006124f1602c83611da1565b91506124fc82612495565b604082019050919050565b60006020820190508181036000830152612520816124e4565b9050919050565b7f4552433732313a20617070726f76616c20746f2063757272656e74206f776e6560008201527f7200000000000000000000000000000000000000000000000000000000000000602082015250565b6000612583602183611da1565b915061258e82612527565b604082019050919050565b600060208201905081810360008301526125b281612576565b9050919050565b7f4552433732313a20617070726f76652063616c6c6572206973206e6f74206f7760008201527f6e6572206e6f7220617070726f76656420666f7220616c6c0000000000000000602082015250565b6000612615603883611da1565b9150612620826125b9565b604082019050919050565b6000602082019050818103600083015261264481612608565b9050919050565b7f4552433732313a207472616e736665722063616c6c6572206973206e6f74206f60008201527f776e6572206e6f7220617070726f766564000000000000000000000000000000602082015250565b60006126a7603183611da1565b91506126b28261264b565b604082019050919050565b600060208201905081810360008301526126d68161269a565b9050919050565b7f4e487b7100000000000000000000000000000000000000000000000000000000600052601160045260246000fd5b600061271782611e51565b915061272283611e51565b925082821015612735576127346126dd565b5b828203905092915050565b7f4e487b7100000000000000000000000000000000000000000000000000000000600052603260045260246000fd5b7f4552433732313a206f776e657220717565727920666f72206e6f6e657869737460008201527f656e7420746f6b656e0000000000000000000000000000000000000000000000602082015250565b60006127cb602983611da1565b91506127d68261276f565b604082019050919050565b600060208201905081810360008301526127fa816127be565b9050919050565b7f4552433732313a2062616c616e636520717565727920666f7220746865207a6560008201527f726f206164647265737300000000000000000000000000000000000000000000602082015250565b600061285d602a83611da1565b915061286882612801565b604082019050919050565b6000602082019050818103600083015261288c81612850565b9050919050565b600061289e82611e51565b91506128a983611e51565b9250827fffffffffffffffffffffffffffffffffffffffffffffffffffffffffffffffff038211156128de576128dd6126dd565b5b828201905092915050565b7f4552433732314d657461646174613a2055524920717565727920666f72206e6f60008201527f6e6578697374656e7420746f6b656e0000000000000000000000000000000000602082015250565b6000612945602f83611da1565b9150612950826128e9565b604082019050919050565b6000602082019050818103600083015261297481612938565b9050919050565b600081905092915050565b600061299182611d96565b61299b818561297b565b93506129ab818560208601611db2565b80840191505092915050565b60006129c38285612986565b91506129cf8284612986565b91508190509392505050565b7f4552433732313a206f70657261746f7220717565727920666f72206e6f6e657860008201527f697374656e7420746f6b656e0000000000000000000000000000000000000000602082015250565b6000612a37602c83611da1565b9150612a42826129db565b604082019050919050565b60006020820190508181036000830152612a6681612a2a565b9050919050565b7f4552433732313a207472616e736665722066726f6d20696e636f72726563742060008201527f6f776e6572000000000000000000000000000000000000000000000000000000602082015250565b6000612ac9602583611da1565b9150612ad482612a6d565b604082019050919050565b60006020820190508181036000830152612af881612abc565b9050919050565b7f4552433732313a207472616e7366657220746f20746865207a65726f2061646460008201527f7265737300000000000000000000000000000000000000000000000000000000602082015250565b6000612b5b602483611da1565b9150612b6682612aff565b604082019050919050565b60006020820190508181036000830152612b8a81612b4e565b9050919050565b7f4552433732313a20617070726f766520746f2063616c6c657200000000000000600082015250565b6000612bc7601983611da1565b9150612bd282612b91565b602082019050919050565b60006020820190508181036000830152612bf681612bba565b9050919050565b7f4552433732313a207472616e7366657220746f206e6f6e20455243373231526560008201527f63656976657220696d706c656d656e7465720000000000000000000000000000602082015250565b6000612c59603283611da1565b9150612c6482612bfd565b604082019050919050565b60006020820190508181036000830152612c8881612c4c565b9050919050565b6000612c9a82611e51565b91507fffffffffffffffffffffffffffffffffffffffffffffffffffffffffffffffff821415612ccd57612ccc6126dd565b5b600182019050919050565b7f4e487b7100000000000000000000000000000000000000000000000000000000600052601260045260246000fd5b6000612d1282611e51565b9150612d1d83611e51565b925082612d2d57612d2c612cd8565b5b828204905092915050565b6000612d4382611e51565b9150612d4e83611e51565b925082612d5e57612d5d612cd8565b5b828206905092915050565b600081519050919050565b600082825260208201905092915050565b6000612d9082612d69565b612d9a8185612d74565b9350612daa818560208601611db2565b612db381611de5565b840191505092915050565b6000608082019050612dd36000830187611ee6565b612de06020830186611ee6565b612ded6040830185611f7c565b8181036060830152612dff8184612d85565b905095945050505050565b600081519050612e1981611d07565b92915050565b600060208284031215612e3557612e34611cd1565b5b6000612e4384828501612e0a565b91505092915050565b7f4552433732313a206d696e7420746f20746865207a65726f2061646472657373600082015250565b6000612e82602083611da1565b9150612e8d82612e4c565b602082019050919050565b60006020820190508181036000830152612eb181612e75565b9050919050565b7f4552433732313a20746f6b656e20616c7265616479206d696e74656400000000600082015250565b6000612eee601c83611da1565b9150612ef982612eb8565b602082019050919050565b60006020820190508181036000830152612f1d81612ee1565b905091905056fea2646970667358221220575b8f21137126ab2f0c10bc102db4b71bae25ff5d97b979489a6279b4bc79e364736f6c63430008090033",
  "immutableReferences": {},
  "source": "// SPDX-License-Identifier: MIT\npragma solidity ^0.8.0;\n\nimport \"@openzeppelin/contracts/token/ERC721/ERC721.sol\";\n\n\ncontract Land is ERC721 {\n    uint256 public cost = 1 ether;\n    uint256 public maxSupply = 100;\n    uint256 public totalSupply = 0;\n    uint256 public worldSize = 10;\n\n    struct Plot {\n        address owner;\n        int256 id;\n    }\n\n    Plot[] public plots;\n\n    constructor(\n        string memory _name,\n        string memory _symbol,\n        uint256 _cost\n    ) ERC721(_name, _symbol) {\n        cost = _cost;\n        \n         for(int256 id = 0; id<100; id++){\n            plots.push(Plot(address(0x0), id));\n            \n        }\n    \n    }\n\n\n    function mint(uint256 _id) public payable {\n        uint256 supply = totalSupply;\n        require(supply <= maxSupply);\n        require(plots[_id - 1].owner == address(0x0));\n        require(msg.value >= cost);\n\n        // NOTE: tokenID always starts from 1, but our array starts from 0\n        plots[_id - 1].owner = msg.sender;\n        totalSupply = totalSupply + 1;\n\n        _safeMint(msg.sender, _id);\n    }\n\n    function transferFrom(\n        address from,\n        address to,\n        uint256 tokenId\n    ) public override {\n        require(\n            _isApprovedOrOwner(_msgSender(), tokenId),\n            \"ERC721: transfer caller is not owner nor approved\"\n        );\n\n        // Update Building ownership\n        plots[tokenId - 1].owner = to;\n\n        _transfer(from, to, tokenId);\n    }\n\n    function safeTransferFrom(\n        address from,\n        address to,\n        uint256 tokenId,\n        bytes memory _data\n    ) public override {\n        require(\n            _isApprovedOrOwner(_msgSender(), tokenId),\n            \"ERC721: transfer caller is not owner nor approved\"\n        );\n\n        // Update Building ownership\n        plots[tokenId - 1].owner = to;\n\n        _safeTransfer(from, to, tokenId, _data);\n    }\n\n    // Public View Functions\n    function getPlots() public view returns (Plot[] memory) {\n        return plots;\n    }\n\n    function getPlot(uint256 _id) public view returns (Plot memory) {\n        return plots[_id - 1];\n    }\n}\n",
  "sourcePath": "/Users/simonbonnedahl/Web3Test/Web3Land/src/contracts/Land.sol",
  "compiler": {
    "name": "solc",
    "version": "0.8.9+commit.e5eed63a.Emscripten.clang"
  },
  "schemaVersion": "3.4.6",
  "updatedAt": "2022-05-07T13:51:18.640Z",
  "networkType": "ethereum",
  "devdoc": {
    "kind": "dev",
    "methods": {
      "approve(address,uint256)": {
        "details": "See {IERC721-approve}."
      },
      "balanceOf(address)": {
        "details": "See {IERC721-balanceOf}."
      },
      "getApproved(uint256)": {
        "details": "See {IERC721-getApproved}."
      },
      "isApprovedForAll(address,address)": {
        "details": "See {IERC721-isApprovedForAll}."
      },
      "name()": {
        "details": "See {IERC721Metadata-name}."
      },
      "ownerOf(uint256)": {
        "details": "See {IERC721-ownerOf}."
      },
      "safeTransferFrom(address,address,uint256)": {
        "details": "See {IERC721-safeTransferFrom}."
      },
      "safeTransferFrom(address,address,uint256,bytes)": {
        "details": "See {IERC721-safeTransferFrom}."
      },
      "setApprovalForAll(address,bool)": {
        "details": "See {IERC721-setApprovalForAll}."
      },
      "supportsInterface(bytes4)": {
        "details": "See {IERC165-supportsInterface}."
      },
      "symbol()": {
        "details": "See {IERC721Metadata-symbol}."
      },
      "tokenURI(uint256)": {
        "details": "See {IERC721Metadata-tokenURI}."
      },
      "transferFrom(address,address,uint256)": {
        "details": "See {IERC721-transferFrom}."
      }
    },
    "version": 1
  },
  "userdoc": {
    "kind": "user",
    "methods": {},
    "version": 1
  }
}